{
  "contractName": "Marketplace",
  "abi": [
    {
      "constant": true,
      "inputs": [
        {
          "name": "",
          "type": "uint256"
        }
      ],
      "name": "bookMapping",
      "outputs": [
        {
          "name": "sellerAddres",
          "type": "address"
        },
        {
          "name": "price",
          "type": "uint256"
        },
        {
          "name": "bookName",
          "type": "string"
        }
      ],
      "payable": false,
      "stateMutability": "view",
      "type": "function",
      "signature": "0x97d25236"
    },
    {
      "constant": true,
      "inputs": [],
      "name": "amount",
      "outputs": [
        {
          "name": "",
          "type": "uint256"
        }
      ],
      "payable": false,
      "stateMutability": "view",
      "type": "function",
      "signature": "0xaa8c217c"
    },
    {
      "constant": false,
      "inputs": [
        {
          "name": "bookName",
          "type": "string"
        },
        {
          "name": "price",
          "type": "uint256"
        }
      ],
      "name": "sell",
      "outputs": [
        {
          "name": "",
          "type": "uint256"
        }
      ],
      "payable": false,
      "stateMutability": "nonpayable",
      "type": "function",
      "signature": "0x9f656321"
    },
    {
      "constant": false,
      "inputs": [
        {
          "name": "uniqueId",
          "type": "uint256"
        }
      ],
      "name": "buy",
      "outputs": [],
      "payable": true,
      "stateMutability": "payable",
      "type": "function",
      "signature": "0xd96a094a"
    }
  ],
  "bytecode": "0x6080604052600060015534801561001557600080fd5b506106ce806100256000396000f3fe608060405260043610610062576000357c0100000000000000000000000000000000000000000000000000000000900463ffffffff16806397d25236146100675780639f65632114610155578063aa8c217c1461023b578063d96a094a14610266575b600080fd5b34801561007357600080fd5b506100a06004803603602081101561008a57600080fd5b8101908080359060200190929190505050610294565b604051808473ffffffffffffffffffffffffffffffffffffffff1673ffffffffffffffffffffffffffffffffffffffff16815260200183815260200180602001828103825283818151815260200191508051906020019080838360005b838110156101185780820151818401526020810190506100fd565b50505050905090810190601f1680156101455780820380516001836020036101000a031916815260200191505b5094505050505060405180910390f35b34801561016157600080fd5b506102256004803603604081101561017857600080fd5b810190808035906020019064010000000081111561019557600080fd5b8201836020820111156101a757600080fd5b803590602001918460018302840111640100000000831117156101c957600080fd5b91908080601f016020809104026020016040519081016040528093929190818152602001838380828437600081840152601f19601f82011690508083019250505050505050919291929080359060200190929190505050610376565b6040518082815260200191505060405180910390f35b34801561024757600080fd5b50610250610434565b6040518082815260200191505060405180910390f35b6102926004803603602081101561027c57600080fd5b810190808035906020019092919050505061043a565b005b60036020528060005260406000206000915090508060000160009054906101000a900473ffffffffffffffffffffffffffffffffffffffff1690806001015490806002018054600181600116156101000203166002900480601f01602080910402602001604051908101604052809291908181526020018280546001816001161561010002031660029004801561036c5780601f106103415761010080835404028352916020019161036c565b820191906000526020600020905b81548152906001019060200180831161034f57829003601f168201915b5050505050905083565b6000600180600082825401925050819055503360036000600154815260200190815260200160002060000160006101000a81548173ffffffffffffffffffffffffffffffffffffffff021916908373ffffffffffffffffffffffffffffffffffffffff16021790555081600360006001548152602001908152602001600020600101819055508260036000600154815260200190815260200160002060020190805190602001906104289291906105c5565b50600154905092915050565b60025481565b610442610645565b60036000838152602001908152602001600020606060405190810160405290816000820160009054906101000a900473ffffffffffffffffffffffffffffffffffffffff1673ffffffffffffffffffffffffffffffffffffffff1673ffffffffffffffffffffffffffffffffffffffff16815260200160018201548152602001600282018054600181600116156101000203166002900480601f01602080910402602001604051908101604052809291908181526020018280546001816001161561010002031660029004801561055a5780601f1061052f5761010080835404028352916020019161055a565b820191906000526020600020905b81548152906001019060200180831161053d57829003601f168201915b505050505081525050905080602001516002819055506000816000015190508073ffffffffffffffffffffffffffffffffffffffff166108fc349081150290604051600060405180830381858888f193505050501580156105bf573d6000803e3d6000fd5b50505050565b828054600181600116156101000203166002900490600052602060002090601f016020900481019282601f1061060657805160ff1916838001178555610634565b82800160010185558215610634579182015b82811115610633578251825591602001919060010190610618565b5b509050610641919061067d565b5090565b606060405190810160405280600073ffffffffffffffffffffffffffffffffffffffff16815260200160008152602001606081525090565b61069f91905b8082111561069b576000816000905550600101610683565b5090565b9056fea165627a7a72305820df08b252692d2d21ab5db6ceb1027bdc295d637123df6c423eb833a2aef635210029",
  "source": "pragma solidity >=0.4.22 <0.7.0;\r\n\r\ncontract Marketplace{\r\n    \r\n    string sellerName;\r\n    uint uniqueId = 0;\r\n    uint  public amount ;\r\n    \r\n    // mapping(address=>string) public sellerMapping;\r\n   \r\n    struct sellBook{\r\n        address payable sellerAddres;\r\n        uint price;\r\n        string bookName;\r\n    }\r\n    \r\n    mapping(uint => sellBook) public bookMapping;\r\n    \r\n\r\n    function sell(string memory bookName ,uint price) public returns (uint){\r\n        \r\n        // bytes32 uniqueId = sha256(abi.encode(msg.sender,bookName));\r\n        \r\n        uniqueId+=1;\r\n        bookMapping[uniqueId].sellerAddres=msg.sender;\r\n        bookMapping[uniqueId].price= price;\r\n        bookMapping[uniqueId].bookName=bookName;\r\n        return uniqueId;\r\n    \r\n    }\r\n    \r\n    function buy(uint uniqueId) public payable {\r\n        \r\n        sellBook memory book = bookMapping[uniqueId];\r\n        amount = book.price;\r\n        address payable sellerAddres = book.sellerAddres;\r\n        sellerAddres.transfer(msg.value);\r\n        \r\n    }\r\n    \r\n}    \r\n",
  "sourcePath": "F:/Blockchain-Projects/eth-marketplace/contracts/Marketplace.sol",
  "compiler": {
    "name": "solc",
    "version": "0.5.0+commit.1d4f565a.Emscripten.clang"
  },
  "schemaVersion": "3.0.1",
  "updatedAt": "2020-07-18T17:19:23.321Z",
  "devdoc": {
    "methods": {}
  },
  "userdoc": {
    "methods": {}
  }
}