{
  "contractName": "Marketplace",
  "abi": [
    {
      "constant": true,
      "inputs": [
        {
          "name": "",
          "type": "uint256"
        }
      ],
      "name": "bookMapping",
      "outputs": [
        {
          "name": "sellerAddress",
          "type": "address"
        },
        {
          "name": "bookName",
          "type": "string"
        },
        {
          "name": "price",
          "type": "uint256"
        }
      ],
      "payable": false,
      "stateMutability": "view",
      "type": "function",
      "signature": "0x97d25236"
    },
    {
      "constant": true,
      "inputs": [],
      "name": "amount",
      "outputs": [
        {
          "name": "",
          "type": "uint256"
        }
      ],
      "payable": false,
      "stateMutability": "view",
      "type": "function",
      "signature": "0xaa8c217c"
    },
    {
      "anonymous": false,
      "inputs": [
        {
          "indexed": false,
          "name": "uniqueId",
          "type": "uint256"
        },
        {
          "indexed": false,
          "name": "bookName",
          "type": "string"
        },
        {
          "indexed": false,
          "name": "price",
          "type": "uint256"
        },
        {
          "indexed": false,
          "name": "sellerAddress",
          "type": "address"
        }
      ],
      "name": "bookAdded",
      "type": "event",
      "signature": "0x79243b1310664f0c0a89c66f716dba9052299aa10e55a358d1f744411a82a99c"
    },
    {
      "anonymous": false,
      "inputs": [
        {
          "indexed": false,
          "name": "uniqueId",
          "type": "uint256"
        },
        {
          "indexed": false,
          "name": "buyer",
          "type": "address"
        },
        {
          "indexed": false,
          "name": "seller",
          "type": "address"
        }
      ],
      "name": "bookPurchased",
      "type": "event",
      "signature": "0x7cb7b6d9dfc268d1d75104ee73b15c1c90f33aaee75abfd283e7f92a30bffd7d"
    },
    {
      "constant": false,
      "inputs": [
        {
          "name": "_bookName",
          "type": "string"
        },
        {
          "name": "_price",
          "type": "uint256"
        }
      ],
      "name": "sell",
      "outputs": [
        {
          "name": "",
          "type": "uint256"
        }
      ],
      "payable": false,
      "stateMutability": "nonpayable",
      "type": "function",
      "signature": "0x9f656321"
    },
    {
      "constant": false,
      "inputs": [
        {
          "name": "_uniqueId",
          "type": "uint256"
        }
      ],
      "name": "buy",
      "outputs": [],
      "payable": true,
      "stateMutability": "payable",
      "type": "function",
      "signature": "0xd96a094a"
    }
  ],
  "bytecode": "0x6080604052600060015534801561001557600080fd5b50610896806100256000396000f3fe608060405260043610610062576000357c0100000000000000000000000000000000000000000000000000000000900463ffffffff16806397d25236146100675780639f65632114610155578063aa8c217c1461023b578063d96a094a14610266575b600080fd5b34801561007357600080fd5b506100a06004803603602081101561008a57600080fd5b8101908080359060200190929190505050610294565b604051808473ffffffffffffffffffffffffffffffffffffffff1673ffffffffffffffffffffffffffffffffffffffff16815260200180602001838152602001828103825284818151815260200191508051906020019080838360005b838110156101185780820151818401526020810190506100fd565b50505050905090810190601f1680156101455780820380516001836020036101000a031916815260200191505b5094505050505060405180910390f35b34801561016157600080fd5b506102256004803603604081101561017857600080fd5b810190808035906020019064010000000081111561019557600080fd5b8201836020820111156101a757600080fd5b803590602001918460018302840111640100000000831117156101c957600080fd5b91908080601f016020809104026020016040519081016040528093929190818152602001838380828437600081840152601f19601f82011690508083019250505050505050919291929080359060200190929190505050610376565b6040518082815260200191505060405180910390f35b34801561024757600080fd5b50610250610518565b6040518082815260200191505060405180910390f35b6102926004803603602081101561027c57600080fd5b810190808035906020019092919050505061051e565b005b60036020528060005260406000206000915090508060000160009054906101000a900473ffffffffffffffffffffffffffffffffffffffff1690806001018054600181600116156101000203166002900480601f0160208091040260200160405190810160405280929190818152602001828054600181600116156101000203166002900480156103665780601f1061033b57610100808354040283529160200191610366565b820191906000526020600020905b81548152906001019060200180831161034957829003601f168201915b5050505050908060020154905083565b60006001600081548092919060010191905055503360036000600154815260200190815260200160002060000160006101000a81548173ffffffffffffffffffffffffffffffffffffffff021916908373ffffffffffffffffffffffffffffffffffffffff160217905550816003600060015481526020019081526020016000206002018190555082600360006001548152602001908152602001600020600101908051906020019061042a92919061078d565b507f79243b1310664f0c0a89c66f716dba9052299aa10e55a358d1f744411a82a99c60015484843360405180858152602001806020018481526020018373ffffffffffffffffffffffffffffffffffffffff1673ffffffffffffffffffffffffffffffffffffffff168152602001828103825285818151815260200191508051906020019080838360005b838110156104d05780820151818401526020810190506104b5565b50505050905090810190601f1680156104fd5780820380516001836020036101000a031916815260200191505b509550505050505060405180910390a1600154905092915050565b60025481565b61052661080d565b60036000838152602001908152602001600020606060405190810160405290816000820160009054906101000a900473ffffffffffffffffffffffffffffffffffffffff1673ffffffffffffffffffffffffffffffffffffffff1673ffffffffffffffffffffffffffffffffffffffff168152602001600182018054600181600116156101000203166002900480601f0160208091040260200160405190810160405280929190818152602001828054600181600116156101000203166002900480156106345780601f1061060957610100808354040283529160200191610634565b820191906000526020600020905b81548152906001019060200180831161061757829003601f168201915b5050505050815260200160028201548152505090503373ffffffffffffffffffffffffffffffffffffffff16816000015173ffffffffffffffffffffffffffffffffffffffff161415151561068857600080fd5b8060400151341015151561069b57600080fd5b806000015173ffffffffffffffffffffffffffffffffffffffff166108fc349081150290604051600060405180830381858888f193505050501580156106e5573d6000803e3d6000fd5b507f7cb7b6d9dfc268d1d75104ee73b15c1c90f33aaee75abfd283e7f92a30bffd7d82338360000151604051808481526020018373ffffffffffffffffffffffffffffffffffffffff1673ffffffffffffffffffffffffffffffffffffffff1681526020018273ffffffffffffffffffffffffffffffffffffffff1673ffffffffffffffffffffffffffffffffffffffff168152602001935050505060405180910390a15050565b828054600181600116156101000203166002900490600052602060002090601f016020900481019282601f106107ce57805160ff19168380011785556107fc565b828001600101855582156107fc579182015b828111156107fb5782518255916020019190600101906107e0565b5b5090506108099190610845565b5090565b606060405190810160405280600073ffffffffffffffffffffffffffffffffffffffff16815260200160608152602001600081525090565b61086791905b8082111561086357600081600090555060010161084b565b5090565b9056fea165627a7a723058207197db0b09157fac6705a9a86079f2451f27a6e3f2f7efd688ef026d138bd3730029",
  "source": "pragma solidity >=0.4.22 < 0.7.0;\r\n\r\ncontract Marketplace{\r\n    \r\n    string sellerName;\r\n    uint uniqueId = 0;\r\n    uint  public amount;\r\n    \r\n    // mapping(address=>string) public sellerMapping;\r\n   \r\n    struct Books{\r\n        address payable sellerAddress;\r\n        string bookName;\r\n        uint price;\r\n        \r\n    }\r\n\r\n    event bookAdded(\r\n        uint uniqueId,\r\n        string bookName,\r\n        uint price,\r\n        address payable sellerAddress\r\n    );\r\n\r\n    event bookPurchased(\r\n        uint uniqueId,\r\n        address buyer,\r\n        address seller\r\n    );\r\n\r\n    mapping(uint => Books) public bookMapping;\r\n\r\n    function sell(string memory _bookName,uint _price)public returns (uint){\r\n        uniqueId ++;\r\n        bookMapping[uniqueId].sellerAddress = msg.sender;\r\n        bookMapping[uniqueId].price = _price;\r\n        bookMapping[uniqueId].bookName = _bookName;\r\n        emit bookAdded(uniqueId,_bookName,_price,msg.sender);\r\n        return uniqueId;\r\n    }\r\n\r\n    function buy(uint _uniqueId) public payable{\r\n        Books memory book = bookMapping[_uniqueId];\r\n        // address payable _seller = book.sellerAddress;\r\n        require(book.sellerAddress != msg.sender);\r\n        require(msg.value >= book.price);\r\n        book.sellerAddress.transfer(msg.value);\r\n        emit bookPurchased(_uniqueId,msg.sender,book.sellerAddress);\r\n    }\r\n}",
  "sourcePath": "F:/Blockchain-Projects/eth-marketplace/contracts/Marketplace.sol",
  "compiler": {
    "name": "solc",
    "version": "0.5.0+commit.1d4f565a.Emscripten.clang"
  },
  "schemaVersion": "3.0.1",
  "updatedAt": "2020-07-21T17:20:31.319Z",
  "devdoc": {
    "methods": {}
  },
  "userdoc": {
    "methods": {}
  }
}