{
  "contractName": "insurance",
  "abi": [
    {
      "constant": true,
      "inputs": [
        {
          "name": "",
          "type": "bytes32"
        }
      ],
      "name": "citizenMapping",
      "outputs": [
        {
          "name": "uniqueId",
          "type": "bool"
        },
        {
          "name": "name",
          "type": "string"
        },
        {
          "name": "amount",
          "type": "uint256"
        }
      ],
      "payable": false,
      "stateMutability": "view",
      "type": "function",
      "signature": "0x27547d37"
    },
    {
      "constant": true,
      "inputs": [
        {
          "name": "",
          "type": "address"
        }
      ],
      "name": "doctorMapping",
      "outputs": [
        {
          "name": "",
          "type": "bool"
        }
      ],
      "payable": false,
      "stateMutability": "view",
      "type": "function",
      "signature": "0xbf94effa"
    },
    {
      "inputs": [],
      "payable": false,
      "stateMutability": "nonpayable",
      "type": "constructor",
      "signature": "constructor"
    },
    {
      "constant": false,
      "inputs": [
        {
          "name": "_address",
          "type": "address"
        }
      ],
      "name": "setDoctor",
      "outputs": [],
      "payable": false,
      "stateMutability": "nonpayable",
      "type": "function",
      "signature": "0x48103e65"
    },
    {
      "constant": false,
      "inputs": [
        {
          "name": "name",
          "type": "string"
        },
        {
          "name": "amount",
          "type": "uint256"
        }
      ],
      "name": "setCitizen",
      "outputs": [
        {
          "name": "",
          "type": "bytes32"
        }
      ],
      "payable": false,
      "stateMutability": "nonpayable",
      "type": "function",
      "signature": "0xd68a458d"
    },
    {
      "constant": false,
      "inputs": [
        {
          "name": "uid",
          "type": "bytes32"
        },
        {
          "name": "requiredAmount",
          "type": "uint256"
        }
      ],
      "name": "claimAmount",
      "outputs": [
        {
          "name": "",
          "type": "string"
        }
      ],
      "payable": false,
      "stateMutability": "nonpayable",
      "type": "function",
      "signature": "0x5d13379e"
    }
  ],
  "bytecode": "0x608060405234801561001057600080fd5b50336000806101000a81548173ffffffffffffffffffffffffffffffffffffffff021916908373ffffffffffffffffffffffffffffffffffffffff160217905550610948806100606000396000f3fe60806040526004361061006d576000357c0100000000000000000000000000000000000000000000000000000000900463ffffffff16806327547d371461007257806348103e65146101385780635d13379e14610189578063bf94effa14610247578063d68a458d146102b0575b600080fd5b34801561007e57600080fd5b506100ab6004803603602081101561009557600080fd5b8101908080359060200190929190505050610396565b604051808415151515815260200180602001838152602001828103825284818151815260200191508051906020019080838360005b838110156100fb5780820151818401526020810190506100e0565b50505050905090810190601f1680156101285780820380516001836020036101000a031916815260200191505b5094505050505060405180910390f35b34801561014457600080fd5b506101876004803603602081101561015b57600080fd5b81019080803573ffffffffffffffffffffffffffffffffffffffff169060200190929190505050610465565b005b34801561019557600080fd5b506101cc600480360360408110156101ac57600080fd5b810190808035906020019092919080359060200190929190505050610574565b6040518080602001828103825283818151815260200191508051906020019080838360005b8381101561020c5780820151818401526020810190506101f1565b50505050905090810190601f1680156102395780820380516001836020036101000a031916815260200191505b509250505060405180910390f35b34801561025357600080fd5b506102966004803603602081101561026a57600080fd5b81019080803573ffffffffffffffffffffffffffffffffffffffff169060200190929190505050610655565b604051808215151515815260200191505060405180910390f35b3480156102bc57600080fd5b50610380600480360360408110156102d357600080fd5b81019080803590602001906401000000008111156102f057600080fd5b82018360208201111561030257600080fd5b8035906020019184600183028401116401000000008311171561032457600080fd5b91908080601f016020809104026020016040519081016040528093929190818152602001838380828437600081840152601f19601f82011690508083019250505050505050919291929080359060200190929190505050610675565b6040518082815260200191505060405180910390f35b60016020528060005260406000206000915090508060000160009054906101000a900460ff1690806001018054600181600116156101000203166002900480601f0160208091040260200160405190810160405280929190818152602001828054600181600116156101000203166002900480156104555780601f1061042a57610100808354040283529160200191610455565b820191906000526020600020905b81548152906001019060200180831161043857829003601f168201915b5050505050908060020154905083565b3373ffffffffffffffffffffffffffffffffffffffff166000809054906101000a900473ffffffffffffffffffffffffffffffffffffffff1673ffffffffffffffffffffffffffffffffffffffff161415156104c057600080fd5b600260008273ffffffffffffffffffffffffffffffffffffffff1673ffffffffffffffffffffffffffffffffffffffff16815260200190815260200160002060009054906101000a900460ff1615151561051957600080fd5b6001600260008373ffffffffffffffffffffffffffffffffffffffff1673ffffffffffffffffffffffffffffffffffffffff16815260200190815260200160002060006101000a81548160ff02191690831515021790555050565b6060600260003373ffffffffffffffffffffffffffffffffffffffff1673ffffffffffffffffffffffffffffffffffffffff16815260200190815260200160002060009054906101000a900460ff1615156105ce57600080fd5b816001600085815260200190815260200160002060020154101515156105f357600080fd5b8160016000858152602001908152602001600020600201600082825403925050819055506040805190810160405280601081526020017f416d6f756e7420436c61696d6564212100000000000000000000000000000000815250905092915050565b60026020528060005260406000206000915054906101000a900460ff1681565b60003373ffffffffffffffffffffffffffffffffffffffff166000809054906101000a900473ffffffffffffffffffffffffffffffffffffffff1673ffffffffffffffffffffffffffffffffffffffff161415156106d257600080fd5b600060023342604051602001808373ffffffffffffffffffffffffffffffffffffffff1673ffffffffffffffffffffffffffffffffffffffff168152602001828152602001925050506040516020818303038152906040526040518082805190602001908083835b60208310151561075f578051825260208201915060208101905060208303925061073a565b6001836020036101000a038019825116818451168082178552505050505050905001915050602060405180830381855afa1580156107a1573d6000803e3d6000fd5b5050506040513d60208110156107b657600080fd5b810190808051906020019092919050505090506001600082815260200190815260200160002060000160009054906101000a900460ff161515156107f957600080fd5b600180600083815260200190815260200160002060000160006101000a81548160ff02191690831515021790555083600160008381526020019081526020016000206001019080519060200190610851929190610877565b508260016000838152602001908152602001600020600201819055508091505092915050565b828054600181600116156101000203166002900490600052602060002090601f016020900481019282601f106108b857805160ff19168380011785556108e6565b828001600101855582156108e6579182015b828111156108e55782518255916020019190600101906108ca565b5b5090506108f391906108f7565b5090565b61091991905b808211156109155760008160009055506001016108fd565b5090565b9056fea165627a7a7230582086e919a3367354474ea757e3195ebf0965d33eb4a2ea37088c392b4e7576d4c30029",
  "source": "pragma solidity >=0.4.22 <0.7.0;\r\n\r\ncontract insurance{\r\n    \r\n    address owner;\r\n\r\n    struct citizen{\r\n        bool uniqueId;\r\n        string name;\r\n        uint amount;\r\n    }\r\n    \r\n    mapping(bytes32 => citizen) public citizenMapping;\r\n    \r\n    mapping(address=>bool) public doctorMapping;\r\n    \r\n    \r\n    constructor () public{\r\n        owner=msg.sender;\r\n    }\r\n    \r\n    \r\n    modifier onlyOwner(){\r\n        require(owner == msg.sender);\r\n        _;\r\n    }\r\n    \r\n    function setDoctor(address _address) public onlyOwner{\r\n        require(!doctorMapping[_address]);\r\n        doctorMapping[_address]=true;\r\n    }\r\n    \r\n    function setCitizen(string memory name,uint amount) public onlyOwner returns (bytes32){\r\n        \r\n        bytes32 uid=(sha256(abi.encode(msg.sender,now)));\r\n        \r\n        require(!citizenMapping[uid].uniqueId);\r\n        \r\n        citizenMapping[uid].uniqueId=true;\r\n        citizenMapping[uid].name=name;\r\n        citizenMapping[uid].amount=amount;\r\n        \r\n        return uid;\r\n\r\n    }\r\n    \r\n    function claimAmount(bytes32 uid,uint requiredAmount) public returns (string memory) {\r\n        \r\n        require(doctorMapping[msg.sender]);\r\n        require(citizenMapping[uid].amount >= requiredAmount);\r\n        citizenMapping[uid].amount-=requiredAmount;\r\n        \r\n        return ('Amount Claimed!!');\r\n        \r\n    }\r\n    \r\n    \r\n    \r\n    \r\n    \r\n    \r\n}",
  "sourcePath": "F:/Blockchain-Projects/eth-insurance/contracts/Insurance.sol",
  "compiler": {
    "name": "solc",
    "version": "0.5.0+commit.1d4f565a.Emscripten.clang"
  },
  "schemaVersion": "3.0.1",
  "updatedAt": "2020-07-08T17:05:31.281Z",
  "devdoc": {
    "methods": {}
  },
  "userdoc": {
    "methods": {}
  }
}