{
  "contractName": "insurance",
  "abi": [
    {
      "constant": true,
      "inputs": [
        {
          "name": "",
          "type": "address"
        }
      ],
      "name": "doctorMapping",
      "outputs": [
        {
          "name": "",
          "type": "bool"
        }
      ],
      "payable": false,
      "stateMutability": "view",
      "type": "function",
      "signature": "0xbf94effa"
    },
    {
      "constant": true,
      "inputs": [
        {
          "name": "",
          "type": "uint256"
        }
      ],
      "name": "citizenMapping",
      "outputs": [
        {
          "name": "uniqueId",
          "type": "bool"
        },
        {
          "name": "name",
          "type": "string"
        },
        {
          "name": "amount",
          "type": "uint256"
        }
      ],
      "payable": false,
      "stateMutability": "view",
      "type": "function",
      "signature": "0xc646f6c8"
    },
    {
      "inputs": [],
      "payable": false,
      "stateMutability": "nonpayable",
      "type": "constructor",
      "signature": "constructor"
    },
    {
      "constant": false,
      "inputs": [
        {
          "name": "_address",
          "type": "address"
        }
      ],
      "name": "setDoctor",
      "outputs": [],
      "payable": false,
      "stateMutability": "nonpayable",
      "type": "function",
      "signature": "0x48103e65"
    },
    {
      "constant": false,
      "inputs": [
        {
          "name": "uid",
          "type": "uint256"
        },
        {
          "name": "name",
          "type": "string"
        },
        {
          "name": "amount",
          "type": "uint256"
        }
      ],
      "name": "setCitizen",
      "outputs": [
        {
          "name": "",
          "type": "uint256"
        }
      ],
      "payable": false,
      "stateMutability": "nonpayable",
      "type": "function",
      "signature": "0xd58d5beb"
    },
    {
      "constant": true,
      "inputs": [
        {
          "name": "uid",
          "type": "uint256"
        }
      ],
      "name": "showCitizen",
      "outputs": [
        {
          "name": "",
          "type": "string"
        }
      ],
      "payable": false,
      "stateMutability": "view",
      "type": "function",
      "signature": "0x7e09cb54"
    },
    {
      "constant": false,
      "inputs": [
        {
          "name": "uid",
          "type": "uint256"
        },
        {
          "name": "requiredAmount",
          "type": "uint256"
        }
      ],
      "name": "claimAmount",
      "outputs": [
        {
          "name": "",
          "type": "string"
        }
      ],
      "payable": false,
      "stateMutability": "nonpayable",
      "type": "function",
      "signature": "0xed8e3506"
    }
  ],
  "bytecode": "0x608060405234801561001057600080fd5b50336000806101000a81548173ffffffffffffffffffffffffffffffffffffffff021916908373ffffffffffffffffffffffffffffffffffffffff1602179055506109d2806100606000396000f3fe608060405260043610610078576000357c0100000000000000000000000000000000000000000000000000000000900463ffffffff16806348103e651461007d5780637e09cb54146100ce578063bf94effa14610182578063c646f6c8146101eb578063d58d5beb146102b1578063ed8e3506146103a1575b600080fd5b34801561008957600080fd5b506100cc600480360360208110156100a057600080fd5b81019080803573ffffffffffffffffffffffffffffffffffffffff16906020019092919050505061045f565b005b3480156100da57600080fd5b50610107600480360360208110156100f157600080fd5b810190808035906020019092919050505061056e565b6040518080602001828103825283818151815260200191508051906020019080838360005b8381101561014757808201518184015260208101905061012c565b50505050905090810190601f1680156101745780820380516001836020036101000a031916815260200191505b509250505060405180910390f35b34801561018e57600080fd5b506101d1600480360360208110156101a557600080fd5b81019080803573ffffffffffffffffffffffffffffffffffffffff169060200190929190505050610626565b604051808215151515815260200191505060405180910390f35b3480156101f757600080fd5b506102246004803603602081101561020e57600080fd5b8101908080359060200190929190505050610646565b604051808415151515815260200180602001838152602001828103825284818151815260200191508051906020019080838360005b83811015610274578082015181840152602081019050610259565b50505050905090810190601f1680156102a15780820380516001836020036101000a031916815260200191505b5094505050505060405180910390f35b3480156102bd57600080fd5b5061038b600480360360608110156102d457600080fd5b8101908080359060200190929190803590602001906401000000008111156102fb57600080fd5b82018360208201111561030d57600080fd5b8035906020019184600183028401116401000000008311171561032f57600080fd5b91908080601f016020809104026020016040519081016040528093929190818152602001838380828437600081840152601f19601f82011690508083019250505050505050919291929080359060200190929190505050610715565b6040518082815260200191505060405180910390f35b3480156103ad57600080fd5b506103e4600480360360408110156103c457600080fd5b810190808035906020019092919080359060200190929190505050610820565b6040518080602001828103825283818151815260200191508051906020019080838360005b83811015610424578082015181840152602081019050610409565b50505050905090810190601f1680156104515780820380516001836020036101000a031916815260200191505b509250505060405180910390f35b3373ffffffffffffffffffffffffffffffffffffffff166000809054906101000a900473ffffffffffffffffffffffffffffffffffffffff1673ffffffffffffffffffffffffffffffffffffffff161415156104ba57600080fd5b600260008273ffffffffffffffffffffffffffffffffffffffff1673ffffffffffffffffffffffffffffffffffffffff16815260200190815260200160002060009054906101000a900460ff1615151561051357600080fd5b6001600260008373ffffffffffffffffffffffffffffffffffffffff1673ffffffffffffffffffffffffffffffffffffffff16815260200190815260200160002060006101000a81548160ff02191690831515021790555050565b6060600160008381526020019081526020016000206001018054600181600116156101000203166002900480601f01602080910402602001604051908101604052809291908181526020018280546001816001161561010002031660029004801561061a5780601f106105ef5761010080835404028352916020019161061a565b820191906000526020600020905b8154815290600101906020018083116105fd57829003601f168201915b50505050509050919050565b60026020528060005260406000206000915054906101000a900460ff1681565b60016020528060005260406000206000915090508060000160009054906101000a900460ff1690806001018054600181600116156101000203166002900480601f0160208091040260200160405190810160405280929190818152602001828054600181600116156101000203166002900480156107055780601f106106da57610100808354040283529160200191610705565b820191906000526020600020905b8154815290600101906020018083116106e857829003601f168201915b5050505050908060020154905083565b60003373ffffffffffffffffffffffffffffffffffffffff166000809054906101000a900473ffffffffffffffffffffffffffffffffffffffff1673ffffffffffffffffffffffffffffffffffffffff1614151561077257600080fd5b6001600085815260200190815260200160002060000160009054906101000a900460ff161515156107a257600080fd5b600180600086815260200190815260200160002060000160006101000a81548160ff021916908315150217905550826001600086815260200190815260200160002060010190805190602001906107fa929190610901565b508160016000868152602001908152602001600020600201819055508390509392505050565b6060600260003373ffffffffffffffffffffffffffffffffffffffff1673ffffffffffffffffffffffffffffffffffffffff16815260200190815260200160002060009054906101000a900460ff16151561087a57600080fd5b8160016000858152602001908152602001600020600201541015151561089f57600080fd5b8160016000858152602001908152602001600020600201600082825403925050819055506040805190810160405280601081526020017f416d6f756e7420436c61696d6564212100000000000000000000000000000000815250905092915050565b828054600181600116156101000203166002900490600052602060002090601f016020900481019282601f1061094257805160ff1916838001178555610970565b82800160010185558215610970579182015b8281111561096f578251825591602001919060010190610954565b5b50905061097d9190610981565b5090565b6109a391905b8082111561099f576000816000905550600101610987565b5090565b9056fea165627a7a7230582082a568ac2e45acd510e1939f69bda00380717a11138f5894673073f9bdf906000029",
  "source": "pragma solidity >=0.4.22 <0.7.0;\r\ncontract insurance{\r\n    \r\n    address owner;\r\n    \r\n\r\n    struct citizen{\r\n        bool uniqueId;\r\n        string name;\r\n        uint amount;\r\n    }\r\n    \r\n    mapping(uint => citizen) public citizenMapping;\r\n    \r\n    mapping(address=>bool) public doctorMapping;\r\n    \r\n    \r\n    constructor() public{\r\n        owner=msg.sender;\r\n    }\r\n    \r\n    \r\n    modifier onlyOwner(){\r\n        require(owner == msg.sender);\r\n        _;\r\n    }\r\n    \r\n    function setDoctor(address _address) public onlyOwner{\r\n        require(!doctorMapping[_address]);\r\n        doctorMapping[_address]=true;\r\n    }\r\n    \r\n    function setCitizen(uint uid,string memory name,uint amount) public onlyOwner returns (uint){\r\n        \r\n        // bytes32 uid=(sha256(abi.encode(msg.sender,now)));\r\n        \r\n\r\n\r\n        require(!citizenMapping[uid].uniqueId);\r\n        \r\n        citizenMapping[uid].uniqueId=true;\r\n        citizenMapping[uid].name=name;\r\n        citizenMapping[uid].amount=amount;\r\n        \r\n        return uid;\r\n\r\n    }\r\n\r\n    function showCitizen(uint uid) public view returns (string memory){\r\n            return  citizenMapping[uid].name;\r\n    }\r\n    \r\n    function claimAmount(uint uid,uint requiredAmount) public returns (string memory) {\r\n        \r\n        require(doctorMapping[msg.sender]);\r\n        require(citizenMapping[uid].amount >= requiredAmount);\r\n        citizenMapping[uid].amount-=requiredAmount;\r\n        \r\n        return ('Amount Claimed!!');\r\n        \r\n    }\r\n    \r\n    \r\n    \r\n    \r\n    \r\n    \r\n}",
  "sourcePath": "F:/Blockchain-Projects/eth-insurance/contracts/Insurance.sol",
  "compiler": {
    "name": "solc",
    "version": "0.5.0+commit.1d4f565a.Emscripten.clang"
  },
  "schemaVersion": "3.0.1",
  "updatedAt": "2020-07-15T11:13:53.188Z",
  "devdoc": {
    "methods": {}
  },
  "userdoc": {
    "methods": {}
  }
}